:020000001628C0
:0E0006008312031321088A00200882000800DC
:1000140003208A110A128000840AA00A0319A10A83
:08002400F003031D0A28080087
:10002C003F3083120313A2000630A3005B30A40000
:10003C004F30A5006630A6006D30A7007D30A800BB
:10004C000730A9007F30AA006F30AB00AC013F3005
:10005C008316860083128601831688018312880119
:10006C008316870183122C08223E84000008870027
:10007C00061CAA282C08093A031D5428081615300A
:10008C00FB004B30FC00BE30FD00FD0B4B28FC0B85
:10009C004B28FB0B4B28000008123E28AC0A2C08FE
:1000AC00223E840000088700081486185E285B280E
:1000BC0008100B30FB002630FC005D30FD00FD0B02
:1000CC006528FC0B6528FB0B652800000000061C4E
:1000DC0070286D288814061D832888100B30FB00AF
:1000EC002630FC005D30FD00FD0B7A28FC0B7A28D5
:1000FC00FB0B7A28000000003E28061CA9282C08BF
:10010C00093A031D992808161530FB004B30FC00EA
:10011C00BE30FD00FD0B9028FC0B9028FB0B9028AB
:10012C0000000812712888100B30FB002630FC00F0
:10013C005D30FD00FD0BA028FC0BA028FB0BA028BC
:10014C000000000054287128861DF8282C08003A5D
:10015C00031DB1283E28AC032C08223E8400000865
:10016C0087000815061ABB28B82808110B30FB00AD
:10017C002630FC005D30FD00FD0BC228FC0BC228B4
:10018C00FB0BC22800000000861DCD28CA2888154C
:10019C00861EE02888110B30FB002630FC005D30F9
:1001AC00FD00FD0BD728FC0BD728FB0BD728000034
:1001BC0000003E28861DF7282C08003A031DE7286E
:1001CC00CE2888110B30FB002630FC005D30FD0082
:1001DC00FD0BEE28FC0BEE28FB0BEE2800000000BC
:0801EC00B128CE283E28F928B5
:02400E004A2F37
:00000001FF
