:020000001628C0
:0E0006008312031321088A00200882000800DC
:1000140003208A110A128000840AA00A0319A10A83
:08002400F003031D0A28080087
:10002C000130831603138600870183128701061C97
:10003C0020281D280C3087001F30FB007130FC007D
:10004C001E30FD00FD0B2828FC0B2828FB0B282854
:10005C0000001E3085000B30FB002630FC005D30AC
:10006C00FD00FD0B3728FC0B3728FB0B3728000055
:10007C000000213087001F30FB007130FC001E3067
:10008C00FD00FD0B4728FC0B4728FB0B4728000005
:10009C00333087000B30FB002630FC005D30FD0058
:1000AC00FD0B5628FC0B5628FB0B562800000000B5
:0400BC0020285F2871
:02400E004A2F37
:00000001FF
