:020000003428A2
:10000800FF00030E8301A2000A08A3008A018B10D7
:10001800081008118618122888140E288810061D42
:100028001828081508101A280811081423088A0027
:0A003800220E8300FF0E7F0E090068
:0E0042008312031321088A00200882000800A0
:1000500021208A110A128000840AA00A0319A10A29
:08006000F003031D282808002D
:100068000F308316031386008312880183168801D4
:10007800831288010B168B178316011783128619B2
:1000880046284228081406194A284728081008153F
:100098000B30FB002630FC005D30FD00FD0B5228C4
:1000A800FC0B5228FB0B5228000000000814081112
:0400B80047285D2850
:02400E004A2F37
:00000001FF
