:020000001628C0
:0E0006008312031321088A00200882000800DC
:1000140003208A110A128000840AA00A0319A10A83
:08002400F003031D0A28080087
:10002C0083120313A201A301A4010130A5008316BE
:10003C00860101308800831286018801081C27285C
:10004C00242888150130A3000630F1007108003C0B
:10005C00031855287103A200F20132307202031802
:10006C0053282308860008151A30FC00F830FD00D0
:10007C00FD0B3E28FC0B3E280000081122088600D0
:10008C0088141A30FC00F830FD00FD0B4B28FC0BDB
:10009C004B2800008810F20A3328F1032C2888140E
:1000AC000A30F1007108003C031872287103F0004B
:1000BC007008A200700886000B30FB002630FC0094
:1000CC005D30FD00FD0B6828FC0B6828FB0B6828D5
:1000DC0000000000F1035828003088190130A500F9
:1000EC0024187A2888117B2888152508A40028282C
:0200FC007E285C
:02400E004A2F37
:00000001FF
