:020000040000FA
:060000000A128A11FC2F18
:100F88000130831603138700831203138701071C9C
:100F9800CE2FCF2FCB2F0230F3000030F400730890
:100FA8008312031387000330F2008A30F1005530B2
:100FB800F000F00BDD2FF10BDD2FF20BDD2FE42F0E
:100FC80001300310F30DF40DFF3E031DE52F7408E7
:100FD800803AFF0080307F02031DF42F1130730226
:100FE800031CF72FF82FD32FCF2F0A128A110028AE
:080FF80083010A128A11C42FC3
:02400E00723FFF
:00000001FF
