:02000000962840
:0E0006008312031321088A00200882000800DC
:10001400831603139816903083129800831687175B
:10002400071383128C1E19281A08F00013280800DD
:0E0034000030831203138C1A0130F000080014
:10004200813083160313990018150A200330FB0030
:100052008A30FC005530FD00FD0B2D28FC0B2D28AD
:10006200FB0B2D28000000008316860183128601F7
:0A007200831688018312880108003C
:0E007C00831203130614861006158611080061
:0E008A00831203130610861406118615080053
:0E009800831203130610861406158611080045
:0E00A600831203130614861006118615080037
:0A00B40083120313081488100800DB
:1000BE00831203131A08F100981C672818121816D9
:0600CE007108F0000800BB
:0E00D400831203130610861006118611080011
:0A00E20083120313061786130800AB
:0A00EC0083120313061286160800A3
:0A00F6008312031306168612080099
:0A010000831203130613861708008C
:10010A0003208A110A128000840AA00A0319A10A8C
:08011A00F003031D8528080015
:0A012200831203130810881408006C
:10012C0021201A2070080319E0285F207008A20013
:10013C007008463A031DA4283E20E02822084C3AB9
:10014C00031DAA285320E0282208523A031DB02888
:10015C004C20E0282208423A031DB6284520E0280E
:10016C002208533A031DBC286A20E0282208413A91
:10017C00031DC2287B20E0282208613A031DC828F1
:10018C007620E0282208423A031DCE287120E02870
:10019C002208623A031DD4288020E0282208473A1E
:1001AC00031DDA285A20E0282208673A031DE028AC
:0801BC009120E0289728E128BA
:02400E004A2F37
:00000001FF
