:020000001628C0
:0E0006008312031321088A00200882000800DC
:1000140003208A110A128000840AA00A0319A10A83
:08002400F003031D0A28080087
:10002C003F3083120313A2000630A3005B30A40000
:10003C004F30A5006630A6006D30A7007D30A800BB
:10004C000730A9007F30AA006F30AB0083168801FF
:10005C000130860083128801860122088800061868
:10006C0038283528F101F20180307206F00080301A
:10007C007002031D43280A30710203185C287108B2
:10008C00223E8400000888000B30FB002630FC0068
:10009C005D30FD00FD0B5028FC0B5028FB0B50284D
:1000AC0000000000F10A0319F20A3A2838285D28EA
:02400E004A2F37
:00000001FF
