:02000000432893
:0E0006008312031321088A00200882000800DC
:1000140083120313F8010830FC00700DF80D740806
:10002400F80203181728F8070310F00DFC0B0F282B
:020034000800C2
:100036003F3083120313A4000630A5005B30A600F0
:100046004F30A7006630A8006D30A9007D30AA00A9
:100056000730AB007F30AC006F30AD002308243E84
:0800660084000008F00008000E
:10006E0003208A110A128000840AA00A0319A10A29
:08007E00F003031D3728080000
:1000860083120313A20183168601013088008312AE
:10009600860188010A30F4002208F0000A20700860
:1000A600A3001B207008860008151A30FC00F830E3
:1000B600FD00FD0B5C28FC0B5C28000008110A30D3
:1000C600F4002208F0000A207808F0007008A30067
:1000D6001B207008860088141A30FC00F830FD00DA
:1000E600FD0B7328FC0B73280000881008184D2898
:1000F600A20A2208643A031D8128A2010A30F400EC
:100106002208F0000A207008A3001B207008860051
:1001160008151A30FC00F830FD00FD0B9028FC0B8A
:100126009028000008110A30F4002208F0000A2086
:100136007808F0007008A3001B2070088600881459
:100146001A30FC00F830FD00FD0BA728FC0BA72891
:0C01560000008810081C81284D28B028EB
:02400E004A2F37
:00000001FF
