:020000001628C0
:0E0006008312031321088A00200882000800DC
:1000140003208A110A128000840AA00A0319A10A83
:08002400F003031D0A28080087
:10002C000F30831603138600831286018316880112
:10003C0083128801061825288618252827280814D5
:10004C00282820280B30FB002630FC005D30FD00FA
:10005C00FD0B2E28FC0B2E28FB0B2E28000000007D
:10006C00061D3A2808103B2836281530FB004B306B
:10007C00FC00BE30FD00FD0B4128FC0B4128FB0BA6
:10008C00412800008814861D5B2888100B30FB006B
:10009C002630FC005D30FD00FD0B5228FC0B522875
:1000AC00FB0B522800000000202806186028861838
:1000BC006028702888100B30FB002630FC005D3067
:1000CC00FD00FD0B6728FC0B6728FB0B6728000065
:0800DC000000252849287128C5
:02400E004A2F37
:00000001FF
