:020000040000FA
:060000000A128A11FC2F18
:100EAC00F901831603138601831203138601071CB1
:100EBC00602F612F5D2FF301F4010130F000790AEE
:100ECC00692F0310F00DFF3E031D672F700883126E
:100EDC00031386000130FF007F08F9070230F2008F
:100EEC000430F100BA30F000F00B7A2FF10B7A2FAE
:100EFC00F20B7A2F000004307906031D862F872F02
:100F0C00882FF9010130F3070318F40A0030F407B5
:100F1C007408803AFF0080307F02031D972F2E301B
:100F2C007302031C9A2F9B2F632F0B30F200263079
:100F3C00F1005D30F000F00BA12FF10BA12FF20BA3
:100F4C00A12FA82FF501F601F701F801770AFF0090
:100F5C000830F0000030F100B62F710DF10CF00CE0
:100F6C00FF0BB32F70088312031386000130F707B1
:100F7C000318F80A0030F8070230F2000430F100D0
:100F8C00BA30F000F00BC82FF10BC82FF20BC82FA2
:100F9C000000043077067804031DD52FD62FD82FE8
:100FAC00F701F8010130F5070318F60A0030F607CF
:100FBC007608803AFF0080307F02031DE72F2E3029
:100FCC007502031CEA2FEB2FAC2F0B30F2002630EE
:100FDC00F1005D30F000F00BF12FF10BF12FF20B63
:100FEC00F12FF82F612F0A128A11002883010A129F
:040FFC008A11562FD1
:02400E00723FFF
:00000001FF
