:02000000652871
:10000800FF00030E8301A2000A08A3008A018B1CCB
:100018004B280130F1000030F2008030F0008030D1
:1000280072067002031D1A287108023C031C4A2834
:1000380001308706071822288710232887140B30D9
:10004800FB002630FC005D30FD00FD0B2928FC0B71
:100058002928FB0B29280000000001308706071813
:1000680037288710382887140B30FB002630FC000F
:100078005D30FD00FD0B3E28FC0B3E28FB0B3E28A7
:1000880000000000F10A0319F20A11288B10230856
:0C0098008A00220E8300FF0E7F0E09007C
:0E00A4008312031321088A002008820008003E
:1000B20052208A110A128000840AA00A0319A10A96
:0800C200F003031D592808009A
:1000CA0083160313870183128701831601178B177F
:1000DA000B168B108312081873286F2887140714BD
:0400EA0073287628D9
:02400E00422F3F
:00000001FF
