:020000005F2877
:0E0006008312031321088A00200882000800DC
:1000140083120313A201A3013F30A4000630A500FC
:100024005B30A6004F30A7006630A8006D30A900F1
:100034007D30AA000730AB007F30AC006F30AD00DC
:100044002408860024088700A3012308093C031C14
:100054005228A2012208093C031C50282308243EEC
:100064008400000886002208093C031C4E2822084C
:10007400243E840000088700A20A0B30FB002630CF
:10008400FC005D30FD00FD0B4528FC0B4528FB0BF7
:100094004528000000003528A20A2C28A30A272896
:0200A400080052
:1000A60003208A110A128000840AA00A0319A10AF1
:0800B600F003031D53280800AC
:1000BE00831603138601831286018316870183122A
:0E00CE008701081C6B2868280A206B286D2803
:02400E004A2F37
:00000001FF
