:02000000432893
:0E0006008312031321088A00200882000800DC
:1000140083120313F8010830FC00700DF80D740806
:10002400F80203181728F8070310F00DFC0B0F282B
:020034000800C2
:100036003F3083120313A5000630A6005B30A700ED
:100046004F30A8006630A9006D30AA007D30AB00A5
:100056000730AC007F30AD006F30AE002408253E7F
:0800660084000008F00008000E
:10006E0003208A110A128000840AA00A0319A10A29
:08007E00F003031D3728080000
:1000860083120313A30183168601013088008312AD
:1000960086018801081C50284D28A2013230220210
:1000A600031883280A30F4002308F0000A20700899
:1000B600A4001B207008860008151A30FC00F830D2
:1000C600FD00FD0B6428FC0B6428000008110A30B3
:1000D600F4002308F0000A207808F0007008A40055
:1000E6001B207008860088141A30FC00F830FD00CA
:1000F600FD0B7B28FC0B7B2800008810A20A5128E8
:10010600A30A2308643A031D8928A30150288A28D4
:02400E004A2F37
:00000001FF
