:020000000328D3
:100006003F3083120313A4000630A5005B30A60020
:100016004F30A7006630A8006D30A9007D30AA00D9
:100026000730AB007F30AC006F30AD008316860121
:10003600831224088600831687018312240887000A
:10004600081C26282328A201A301A3012308093C92
:10005600031C5428A2012208093C031C5228230829
:10006600243E8400000886002208093C031C502810
:100076002208243E840000088700A20A0B30FB00F9
:100086002630FC005D30FD00FD0B4728FC0B4728A1
:10009600FB0B4728000000003728A20A2E28A30AD7
:0600A60029282628552838
:02400E004A2F37
:00000001FF
