:02000000952841
:10000800FF00030E8301A5000A08A6008A017B08E9
:10001800A2007C08A1007D08A0008B101230870088
:100028000B30FB002630FC005D30FD00FD0B1A286C
:10003800FC0B1A28FB0B1A280000000087010B3064
:10004800FB002630FC005D30FD00FD0B2928FC0B71
:100058002928FB0B29280000000012282208FB0091
:100068002108FC002008FD0026088A00250E8300D0
:06007800FF0E7F0E0900DF
:0E007E008312031324088A002308820008005E
:10008C0021308312031387000B30FB002630FC0059
:10009C005D30FD00FD0B5028FC0B5028FB0B50284D
:1000AC0000000000333087000B30FB002630FC00D2
:1000BC005D30FD00FD0B6028FC0B6028FB0B6028FD
:1000CC00000000000C3087000B30FB002630FC00D9
:1000DC005D30FD00FD0B7028FC0B7028FB0B7028AD
:1000EC00000000001E3087000B30FB002630FC00A7
:1000FC005D30FD00FD0B8028FC0B8028FB0B80285D
:06010C00000000000800E5
:100112003F208A110A128000840AA30A0319A40A42
:08012200F003031D8928080009
:10012A008316031387018312870183160814831227
:10013A0088010B168B17831601138312081CA62835
:08014A00A2284620A628A828DF
:02400E004A2F37
:00000001FF
