:020000001628C0
:0E0006008312031321088A00200882000800DC
:1000140003208A110A128000840AA00A0319A10A83
:08002400F003031D0A28080087
:10002C003F3083120313A2000630A3005B30A40000
:10003C004F30A5006630A6006D30A7007D30A800BB
:10004C000730A9007F30AA006F30AB00AC0107303D
:10005C0083168600831286018316870183122C086F
:10006C00223E840000088700061C3D283A2886188A
:10007C005C282C08093A031D532886151530FB0003
:10008C004B30FC00BE30FD00FD0B4A28FC0B4A280F
:10009C00FB0B4A28000086115C28AC0A2C08223E77
:1000AC0084000008870086185C28592806197B28CC
:1000BC002C08003A031D722806161530FB004B3035
:1000CC00FC00BE30FD00FD0B6928FC0B6928FB0B06
:1000DC006928000006123D28AC032C08223E84003F
:0E00EC000008870006197B2878283D287C280C
:02400E004A2F37
:00000001FF
