:020000001628C0
:0E0006008312031321088A00200882000800DC
:1000140003208A110A128000840AA00A0319A10A83
:08002400F003031D0A28080087
:10002C0083120313A201A3018316860101308800F9
:10003C00831286018801A3012308093C031C502864
:10004C00A2012208093C031C4E28F1013230710236
:10005C0003184C282308860008151A30FC00F830C9
:10006C00FD00FD0B3728FC0B372800000811220877
:10007C00860088141A30FC00F830FD00FD0B442873
:10008C00FC0B442800008810F10A2C28A20A27280F
:0E009C00A30A2228081C532850282128542883
:02400E004A2F37
:00000001FF
